:1001000021000039224A0221FC01CDF3013E0132D7
:1001100048020604CD7101AF324802211602CDF328
:10012000013E0132490247CD7101E5212B02CDF399
:10013000013A49026F2600CDBB01212E02CDF30109
:10014000E1CDBB01213902CDF3013A49023CFE1158
:10015000C223012A4A02EB210000397DBBC26B0198
:100160007CBAC26B01213102C3F301213C02C3F30B
:10017000012100000E4116431E4205CA9101C5D55A
:100180007A535FCD7A01D1C1CD9101794B5FC37AAA
:1001900001233A4802B7C878C631D3003E3AD300AB
:1001A0003E20D30079D3003E2DD3003E3ED3007ACB
:1001B000D3003E0DD3003E0AD300C90630111027EC
:1001C000CDDB0111E803CDDB01116400CDDB0111B2
:1001D0000A00CDDB017DC630D300C90E307D936FA0
:1001E0007C9A67DAEA010CC3DD011979B8C8060008
:1001F000D300C97EB7C8D30023C3F30148616E6F33
:10020000692C2034206469736B732C204120746F37
:1002100020433A0D0A004D6F76657320666F722099
:100220006E206469736B733A0D0A006E3D003A20CC
:1002300000537461636B204F4B0D0A00537461636C
:0C0240006B204241440D0A000000000049
:00010001FE
